{
  "contractName": "EncryptionVerifier",
  "abi": [
    {
      "inputs": [
        {
          "internalType": "uint256[2]",
          "name": "a",
          "type": "uint256[2]"
        },
        {
          "internalType": "uint256[2][2]",
          "name": "b",
          "type": "uint256[2][2]"
        },
        {
          "internalType": "uint256[2]",
          "name": "c",
          "type": "uint256[2]"
        },
        {
          "internalType": "uint256[1005]",
          "name": "input",
          "type": "uint256[1005]"
        }
      ],
      "name": "verifyProof",
      "outputs": [
        {
          "internalType": "bool",
          "name": "r",
          "type": "bool"
        }
      ],
      "stateMutability": "view",
      "type": "function",
      "constant": true
    }
  ],
  "bytecode": "0x608060405234801561001057600080fd5b50612dbd806100206000396000f3fe608060405234801561001057600080fd5b50600436106100365760003560e01c806322909da01461003b578063a304285714610057575b600080fd5b6100556004803603810190610050919061242c565b610087565b005b610071600480360381019061006c9190612735565b61048f565b60405161007e91906127b9565b60405180910390f35b806000600a811061009b5761009a6127d4565b5b6020020160208101906100ae9190612861565b6000806101000a81548173ffffffffffffffffffffffffffffffffffffffff021916908373ffffffffffffffffffffffffffffffffffffffff160217905550806001600a8110610101576101006127d4565b5b6020020160208101906101149190612861565b600160006101000a81548173ffffffffffffffffffffffffffffffffffffffff021916908373ffffffffffffffffffffffffffffffffffffffff160217905550806002600a8110610168576101676127d4565b5b60200201602081019061017b9190612861565b600260006101000a81548173ffffffffffffffffffffffffffffffffffffffff021916908373ffffffffffffffffffffffffffffffffffffffff160217905550806003600a81106101cf576101ce6127d4565b5b6020020160208101906101e29190612861565b600360006101000a81548173ffffffffffffffffffffffffffffffffffffffff021916908373ffffffffffffffffffffffffffffffffffffffff160217905550806004600a8110610236576102356127d4565b5b6020020160208101906102499190612861565b600460006101000a81548173ffffffffffffffffffffffffffffffffffffffff021916908373ffffffffffffffffffffffffffffffffffffffff160217905550806005600a811061029d5761029c6127d4565b5b6020020160208101906102b09190612861565b600560006101000a81548173ffffffffffffffffffffffffffffffffffffffff021916908373ffffffffffffffffffffffffffffffffffffffff160217905550806006600a8110610304576103036127d4565b5b6020020160208101906103179190612861565b600660006101000a81548173ffffffffffffffffffffffffffffffffffffffff021916908373ffffffffffffffffffffffffffffffffffffffff160217905550806007600a811061036b5761036a6127d4565b5b60200201602081019061037e9190612861565b600760006101000a81548173ffffffffffffffffffffffffffffffffffffffff021916908373ffffffffffffffffffffffffffffffffffffffff160217905550806008600a81106103d2576103d16127d4565b5b6020020160208101906103e59190612861565b600860006101000a81548173ffffffffffffffffffffffffffffffffffffffff021916908373ffffffffffffffffffffffffffffffffffffffff160217905550806009600a8110610439576104386127d4565b5b60200201602081019061044c9190612861565b600960006101000a81548173ffffffffffffffffffffffffffffffffffffffff021916908373ffffffffffffffffffffffffffffffffffffffff16021790555050565b60006104996122bb565b6040518060400160405280876000600281106104b8576104b76127d4565b5b60200201518152602001876001600281106104d6576104d56127d4565b5b6020020151815250816000018190525060405180604001604052806040518060400160405280886000600281106105105761050f6127d4565b5b6020020151600060028110610528576105276127d4565b5b6020020151815260200188600060028110610546576105456127d4565b5b602002015160016002811061055e5761055d6127d4565b5b6020020151815250815260200160405180604001604052808860016002811061058a576105896127d4565b5b60200201516000600281106105a2576105a16127d4565b5b60200201518152602001886001600281106105c0576105bf6127d4565b5b60200201516001600281106105d8576105d76127d4565b5b6020020151815250815250816020018190525060405180604001604052808560006002811061060a576106096127d4565b5b6020020151815260200185600160028110610628576106276127d4565b5b6020020151815250816040018190525060006103ed67ffffffffffffffff81111561065657610655612470565b5b6040519080825280602002602001820160405280156106845781602001602082028036833780820191505090505b50905060005b6103ed8110156106df5784816103ed81106106a8576106a76127d4565b5b60200201518282815181106106c0576106bf6127d4565b5b60200260200101818152505080806106d7906128bd565b91505061068a565b5060006106ec828461070b565b036106fc57600192505050610703565b6000925050505b949350505050565b6000807f30644e72e131a029b85045b68181585d2833e84879b9709143e1f593f00000019050600061073b6117fa565b90506103ee6001865161074e9190612905565b1461078e576040517f08c379a000000000000000000000000000000000000000000000000000000000815260040161078590612996565b60405180910390fd5b60006040518060400160405280600081526020016000815250905060005b606481101561091557838782815181106107c9576107c86127d4565b5b602002602001015110610811576040517f08c379a000000000000000000000000000000000000000000000000000000000815260040161080890612a02565b60405180910390fd5b60008060008054906101000a900473ffffffffffffffffffffffffffffffffffffffff1673ffffffffffffffffffffffffffffffffffffffff1663b4e55fed60018561085d9190612905565b6040518263ffffffff1660e01b81526004016108799190612a31565b6040805180830381865afa158015610895573d6000803e3d6000fd5b505050506040513d601f19601f820116820180604052508101906108b99190612a61565b915091506108fe846108f96040518060400160405280868152602001858152508c87815181106108ec576108eb6127d4565b5b6020026020010151611ab1565b611b89565b93505050808061090d906128bd565b9150506107ac565b5060005b6064811015610a9c5783876064836109319190612905565b81518110610942576109416127d4565b5b60200260200101511061098a576040517f08c379a000000000000000000000000000000000000000000000000000000000815260040161098190612a02565b60405180910390fd5b600080600160009054906101000a900473ffffffffffffffffffffffffffffffffffffffff1673ffffffffffffffffffffffffffffffffffffffff1663b4e55fed6001856109d89190612905565b6040518263ffffffff1660e01b81526004016109f49190612a31565b6040805180830381865afa158015610a10573d6000803e3d6000fd5b505050506040513d601f19601f82011682018060405250810190610a349190612a61565b91509150610a8584610a806040518060400160405280868152602001858152508c606488610a629190612905565b81518110610a7357610a726127d4565b5b6020026020010151611ab1565b611b89565b935050508080610a94906128bd565b915050610919565b5060005b6064811015610c2357838760c883610ab89190612905565b81518110610ac957610ac86127d4565b5b602002602001015110610b11576040517f08c379a0000000000000000000000000000000000000000000000000000000008152600401610b0890612a02565b60405180910390fd5b600080600260009054906101000a900473ffffffffffffffffffffffffffffffffffffffff1673ffffffffffffffffffffffffffffffffffffffff1663b4e55fed600185610b5f9190612905565b6040518263ffffffff1660e01b8152600401610b7b9190612a31565b6040805180830381865afa158015610b97573d6000803e3d6000fd5b505050506040513d601f19601f82011682018060405250810190610bbb9190612a61565b91509150610c0c84610c076040518060400160405280868152602001858152508c60c888610be99190612905565b81518110610bfa57610bf96127d4565b5b6020026020010151611ab1565b611b89565b935050508080610c1b906128bd565b915050610aa0565b5060005b6064811015610dac57838761012c83610c409190612905565b81518110610c5157610c506127d4565b5b602002602001015110610c99576040517f08c379a0000000000000000000000000000000000000000000000000000000008152600401610c9090612a02565b60405180910390fd5b600080600360009054906101000a900473ffffffffffffffffffffffffffffffffffffffff1673ffffffffffffffffffffffffffffffffffffffff1663b4e55fed600185610ce79190612905565b6040518263ffffffff1660e01b8152600401610d039190612a31565b6040805180830381865afa158015610d1f573d6000803e3d6000fd5b505050506040513d601f19601f82011682018060405250810190610d439190612a61565b91509150610d9584610d906040518060400160405280868152602001858152508c61012c88610d729190612905565b81518110610d8357610d826127d4565b5b6020026020010151611ab1565b611b89565b935050508080610da4906128bd565b915050610c27565b5060005b6064811015610f3557838761019083610dc99190612905565b81518110610dda57610dd96127d4565b5b602002602001015110610e22576040517f08c379a0000000000000000000000000000000000000000000000000000000008152600401610e1990612a02565b60405180910390fd5b600080600460009054906101000a900473ffffffffffffffffffffffffffffffffffffffff1673ffffffffffffffffffffffffffffffffffffffff1663b4e55fed600185610e709190612905565b6040518263ffffffff1660e01b8152600401610e8c9190612a31565b6040805180830381865afa158015610ea8573d6000803e3d6000fd5b505050506040513d601f19601f82011682018060405250810190610ecc9190612a61565b91509150610f1e84610f196040518060400160405280868152602001858152508c61019088610efb9190612905565b81518110610f0c57610f0b6127d4565b5b6020026020010151611ab1565b611b89565b935050508080610f2d906128bd565b915050610db0565b5060005b60648110156110be5783876101f483610f529190612905565b81518110610f6357610f626127d4565b5b602002602001015110610fab576040517f08c379a0000000000000000000000000000000000000000000000000000000008152600401610fa290612a02565b60405180910390fd5b600080600560009054906101000a900473ffffffffffffffffffffffffffffffffffffffff1673ffffffffffffffffffffffffffffffffffffffff1663b4e55fed600185610ff99190612905565b6040518263ffffffff1660e01b81526004016110159190612a31565b6040805180830381865afa158015611031573d6000803e3d6000fd5b505050506040513d601f19601f820116820180604052508101906110559190612a61565b915091506110a7846110a26040518060400160405280868152602001858152508c6101f4886110849190612905565b81518110611095576110946127d4565b5b6020026020010151611ab1565b611b89565b9350505080806110b6906128bd565b915050610f39565b5060005b6064811015611247578387610258836110db9190612905565b815181106110ec576110eb6127d4565b5b602002602001015110611134576040517f08c379a000000000000000000000000000000000000000000000000000000000815260040161112b90612a02565b60405180910390fd5b600080600660009054906101000a900473ffffffffffffffffffffffffffffffffffffffff1673ffffffffffffffffffffffffffffffffffffffff1663b4e55fed6001856111829190612905565b6040518263ffffffff1660e01b815260040161119e9190612a31565b6040805180830381865afa1580156111ba573d6000803e3d6000fd5b505050506040513d601f19601f820116820180604052508101906111de9190612a61565b915091506112308461122b6040518060400160405280868152602001858152508c6102588861120d9190612905565b8151811061121e5761121d6127d4565b5b6020026020010151611ab1565b611b89565b93505050808061123f906128bd565b9150506110c2565b5060005b60648110156113d05783876102bc836112649190612905565b81518110611275576112746127d4565b5b6020026020010151106112bd576040517f08c379a00000000000000000000000000000000000000000000000000000000081526004016112b490612a02565b60405180910390fd5b600080600760009054906101000a900473ffffffffffffffffffffffffffffffffffffffff1673ffffffffffffffffffffffffffffffffffffffff1663b4e55fed60018561130b9190612905565b6040518263ffffffff1660e01b81526004016113279190612a31565b6040805180830381865afa158015611343573d6000803e3d6000fd5b505050506040513d601f19601f820116820180604052508101906113679190612a61565b915091506113b9846113b46040518060400160405280868152602001858152508c6102bc886113969190612905565b815181106113a7576113a66127d4565b5b6020026020010151611ab1565b611b89565b9350505080806113c8906128bd565b91505061124b565b5060005b6064811015611559578387610320836113ed9190612905565b815181106113fe576113fd6127d4565b5b602002602001015110611446576040517f08c379a000000000000000000000000000000000000000000000000000000000815260040161143d90612a02565b60405180910390fd5b600080600860009054906101000a900473ffffffffffffffffffffffffffffffffffffffff1673ffffffffffffffffffffffffffffffffffffffff1663b4e55fed6001856114949190612905565b6040518263ffffffff1660e01b81526004016114b09190612a31565b6040805180830381865afa1580156114cc573d6000803e3d6000fd5b505050506040513d601f19601f820116820180604052508101906114f09190612a61565b915091506115428461153d6040518060400160405280868152602001858152508c6103208861151f9190612905565b815181106115305761152f6127d4565b5b6020026020010151611ab1565b611b89565b935050508080611551906128bd565b9150506113d4565b5060005b606a8110156116e2578387610384836115769190612905565b81518110611587576115866127d4565b5b6020026020010151106115cf576040517f08c379a00000000000000000000000000000000000000000000000000000000081526004016115c690612a02565b60405180910390fd5b600080600960009054906101000a900473ffffffffffffffffffffffffffffffffffffffff1673ffffffffffffffffffffffffffffffffffffffff1663b4e55fed60018561161d9190612905565b6040518263ffffffff1660e01b81526004016116399190612a31565b6040805180830381865afa158015611655573d6000803e3d6000fd5b505050506040513d601f19601f820116820180604052508101906116799190612a61565b915091506116cb846116c66040518060400160405280868152602001858152508c610384886116a89190612905565b815181106116b9576116b86127d4565b5b6020026020010151611ab1565b611b89565b9350505080806116da906128bd565b91505061155d565b5060008060008054906101000a900473ffffffffffffffffffffffffffffffffffffffff1673ffffffffffffffffffffffffffffffffffffffff1663b4e55fed60006040518263ffffffff1660e01b81526004016117409190612ae6565b6040805180830381865afa15801561175c573d6000803e3d6000fd5b505050506040513d601f19601f820116820180604052508101906117809190612a61565b915091506117a283604051806040016040528085815260200184815250611b89565b92506117d86117b48860000151611c87565b8860200151866000015187602001518789604001518d604001518b60600151611d2c565b6117ea576001955050505050506117f4565b6000955050505050505b92915050565b6118026122ee565b60405180604001604052807f2d4d9aa7e302d9df41749d5507949d05dbea33fbb16c643b22f599a2be6df2e281526020017f14bedd503c37ceb061d8ec60209fe345ce89830a19230301f076caff004d19268152508160000181905250604051806040016040528060405180604001604052807f0967032fcbf776d1afc985f88877f182d38480a653f2decaa9794cbc3bf3060c81526020017f0e187847ad4c798374d0d6732bf501847dd68bc0e071241e0213bc7fc13db7ab815250815260200160405180604001604052807f304cfbd1e08a704a99f5e847d93f8c3caafddec46b7a0d379da69a4d112346a781526020017f1739c1b1a457a8c7313123d24d2f9192f896b7c63eea05a9d57f06547ad0cec88152508152508160200181905250604051806040016040528060405180604001604052807f198e9393920d483a7260bfb731fb5d25f1aa493335a9e71297e485b7aef312c281526020017f1800deef121f1e76426a00665e5c4479674322d4f75edadd46debd5cd992f6ed815250815260200160405180604001604052807f090689d0585ff075ec9e99ad690c3395bc4b313370b38ef355acdadcd122975b81526020017f12c85ea5db8c6deb4aab71808dcb408fe3d1e7690c43d37b4ce6cc0166fa7daa8152508152508160400181905250604051806040016040528060405180604001604052807f0eb59c773308f7c5ca2878b9ef8e838364d6dfdb6134d9047b0c62b91317e6fc81526020017f120af639c3b39166c59258bcdfafcd200d5979ef298379ba3829b1b8d18deb04815250815260200160405180604001604052807f0b10f73c967156acf8af6b620972c56faec81bab0abb38ee30a96029efe6b4d981526020017f012f02fceef0e724e4cc825bea8251795857786fd030d1ea4cf8225057d548ea815250815250816060018190525090565b611ab961232e565b611ac1612348565b836000015181600060038110611ada57611ad96127d4565b5b602002018181525050836020015181600160038110611afc57611afb6127d4565b5b6020020181815250508281600260038110611b1a57611b196127d4565b5b602002018181525050600060608360808460076107d05a03fa90508060008103611b4057fe5b5080611b81576040517f08c379a0000000000000000000000000000000000000000000000000000000008152600401611b7890612b4d565b60405180910390fd5b505092915050565b611b9161232e565b611b9961236a565b836000015181600060048110611bb257611bb16127d4565b5b602002018181525050836020015181600160048110611bd457611bd36127d4565b5b602002018181525050826000015181600260048110611bf657611bf56127d4565b5b602002018181525050826020015181600360048110611c1857611c176127d4565b5b602002018181525050600060608360c08460066107d05a03fa90508060008103611c3e57fe5b5080611c7f576040517f08c379a0000000000000000000000000000000000000000000000000000000008152600401611c7690612bb9565b60405180910390fd5b505092915050565b611c8f61232e565b60007f30644e72e131a029b85045b68181585d97816a916871ca8d3c208c16d87cfd47905060008360000151148015611ccc575060008360200151145b15611cf0576040518060400160405280600081526020016000815250915050611d27565b604051806040016040528084600001518152602001828560200151611d159190612c08565b83611d209190612c39565b8152509150505b919050565b600080600467ffffffffffffffff811115611d4a57611d49612470565b5b604051908082528060200260200182016040528015611d8357816020015b611d7061232e565b815260200190600190039081611d685790505b5090506000600467ffffffffffffffff811115611da357611da2612470565b5b604051908082528060200260200182016040528015611ddc57816020015b611dc961238c565b815260200190600190039081611dc15790505b5090508a82600081518110611df457611df36127d4565b5b60200260200101819052508882600181518110611e1457611e136127d4565b5b60200260200101819052508682600281518110611e3457611e336127d4565b5b60200260200101819052508482600381518110611e5457611e536127d4565b5b60200260200101819052508981600081518110611e7457611e736127d4565b5b60200260200101819052508781600181518110611e9457611e936127d4565b5b60200260200101819052508581600281518110611eb457611eb36127d4565b5b60200260200101819052508381600381518110611ed457611ed36127d4565b5b6020026020010181905250611ee98282611ef9565b9250505098975050505050505050565b60008151835114611f3f576040517f08c379a0000000000000000000000000000000000000000000000000000000008152600401611f3690612cb9565b60405180910390fd5b6000835190506000600682611f549190612cd9565b905060008167ffffffffffffffff811115611f7257611f71612470565b5b604051908082528060200260200182016040528015611fa05781602001602082028036833780820191505090505b50905060005b8381101561222557868181518110611fc157611fc06127d4565b5b602002602001015160000151826000600684611fdd9190612cd9565b611fe79190612905565b81518110611ff857611ff76127d4565b5b602002602001018181525050868181518110612017576120166127d4565b5b6020026020010151602001518260016006846120339190612cd9565b61203d9190612905565b8151811061204e5761204d6127d4565b5b60200260200101818152505085818151811061206d5761206c6127d4565b5b60200260200101516000015160006002811061208c5761208b6127d4565b5b60200201518260026006846120a19190612cd9565b6120ab9190612905565b815181106120bc576120bb6127d4565b5b6020026020010181815250508581815181106120db576120da6127d4565b5b6020026020010151600001516001600281106120fa576120f96127d4565b5b602002015182600360068461210f9190612cd9565b6121199190612905565b8151811061212a576121296127d4565b5b602002602001018181525050858181518110612149576121486127d4565b5b602002602001015160200151600060028110612168576121676127d4565b5b602002015182600460068461217d9190612cd9565b6121879190612905565b81518110612198576121976127d4565b5b6020026020010181815250508581815181106121b7576121b66127d4565b5b6020026020010151602001516001600281106121d6576121d56127d4565b5b60200201518260056006846121eb9190612cd9565b6121f59190612905565b81518110612206576122056127d4565b5b602002602001018181525050808061221d906128bd565b915050611fa6565b5061222e6123b2565b6000602082602086026020860160086107d05a03fa9050806000810361225057fe5b5080612291576040517f08c379a000000000000000000000000000000000000000000000000000000000815260040161228890612d67565b60405180910390fd5b6000826000600181106122a7576122a66127d4565b5b602002015114159550505050505092915050565b60405180606001604052806122ce61232e565b81526020016122db61238c565b81526020016122e861232e565b81525090565b604051806080016040528061230161232e565b815260200161230e61238c565b815260200161231b61238c565b815260200161232861238c565b81525090565b604051806040016040528060008152602001600081525090565b6040518060600160405280600390602082028036833780820191505090505090565b6040518060800160405280600490602082028036833780820191505090505090565b604051806040016040528061239f6123d4565b81526020016123ac6123d4565b81525090565b6040518060200160405280600190602082028036833780820191505090505090565b6040518060400160405280600290602082028036833780820191505090505090565b6000604051905090565b600080fd5b600080fd5b6000819050826020600a028201111561242657612425612405565b5b92915050565b6000610140828403121561244357612442612400565b5b60006124518482850161240a565b91505092915050565b600080fd5b6000601f19601f8301169050919050565b7f4e487b7100000000000000000000000000000000000000000000000000000000600052604160045260246000fd5b6124a88261245f565b810181811067ffffffffffffffff821117156124c7576124c6612470565b5b80604052505050565b60006124da6123f6565b90506124e6828261249f565b919050565b600067ffffffffffffffff82111561250657612505612470565b5b602082029050919050565b6000819050919050565b61252481612511565b811461252f57600080fd5b50565b6000813590506125418161251b565b92915050565b600061255a612555846124eb565b6124d0565b9050806020840283018581111561257457612573612405565b5b835b8181101561259d57806125898882612532565b845260208401935050602081019050612576565b5050509392505050565b600082601f8301126125bc576125bb61245a565b5b60026125c9848285612547565b91505092915050565b600067ffffffffffffffff8211156125ed576125ec612470565b5b602082029050919050565b600061260b612606846125d2565b6124d0565b9050806040840283018581111561262557612624612405565b5b835b8181101561264e578061263a88826125a7565b845260208401935050604081019050612627565b5050509392505050565b600082601f83011261266d5761266c61245a565b5b600261267a8482856125f8565b91505092915050565b600067ffffffffffffffff82111561269e5761269d612470565b5b602082029050919050565b60006126bc6126b784612683565b6124d0565b905080602084028301858111156126d6576126d5612405565b5b835b818110156126ff57806126eb8882612532565b8452602084019350506020810190506126d8565b5050509392505050565b600082601f83011261271e5761271d61245a565b5b6103ed61272c8482856126a9565b91505092915050565b600080600080617ea085870312156127505761274f612400565b5b600061275e878288016125a7565b945050604061276f87828801612658565b93505060c0612780878288016125a7565b92505061010061279287828801612709565b91505092959194509250565b60008115159050919050565b6127b38161279e565b82525050565b60006020820190506127ce60008301846127aa565b92915050565b7f4e487b7100000000000000000000000000000000000000000000000000000000600052603260045260246000fd5b600073ffffffffffffffffffffffffffffffffffffffff82169050919050565b600061282e82612803565b9050919050565b61283e81612823565b811461284957600080fd5b50565b60008135905061285b81612835565b92915050565b60006020828403121561287757612876612400565b5b60006128858482850161284c565b91505092915050565b7f4e487b7100000000000000000000000000000000000000000000000000000000600052601160045260246000fd5b60006128c882612511565b91507fffffffffffffffffffffffffffffffffffffffffffffffffffffffffffffffff82036128fa576128f961288e565b5b600182019050919050565b600061291082612511565b915061291b83612511565b92508282019050808211156129335761293261288e565b5b92915050565b600082825260208201905092915050565b7f76657269666965722d6261642d696e7075740000000000000000000000000000600082015250565b6000612980601283612939565b915061298b8261294a565b602082019050919050565b600060208201905081810360008301526129af81612973565b9050919050565b7f76657269666965722d6774652d736e61726b2d7363616c61722d6669656c6400600082015250565b60006129ec601f83612939565b91506129f7826129b6565b602082019050919050565b60006020820190508181036000830152612a1b816129df565b9050919050565b612a2b81612511565b82525050565b6000602082019050612a466000830184612a22565b92915050565b600081519050612a5b8161251b565b92915050565b60008060408385031215612a7857612a77612400565b5b6000612a8685828601612a4c565b9250506020612a9785828601612a4c565b9150509250929050565b6000819050919050565b6000819050919050565b6000612ad0612acb612ac684612aa1565b612aab565b612511565b9050919050565b612ae081612ab5565b82525050565b6000602082019050612afb6000830184612ad7565b92915050565b7f70616972696e672d6d756c2d6661696c65640000000000000000000000000000600082015250565b6000612b37601283612939565b9150612b4282612b01565b602082019050919050565b60006020820190508181036000830152612b6681612b2a565b9050919050565b7f70616972696e672d6164642d6661696c65640000000000000000000000000000600082015250565b6000612ba3601283612939565b9150612bae82612b6d565b602082019050919050565b60006020820190508181036000830152612bd281612b96565b9050919050565b7f4e487b7100000000000000000000000000000000000000000000000000000000600052601260045260246000fd5b6000612c1382612511565b9150612c1e83612511565b925082612c2e57612c2d612bd9565b5b828206905092915050565b6000612c4482612511565b9150612c4f83612511565b9250828203905081811115612c6757612c6661288e565b5b92915050565b7f70616972696e672d6c656e677468732d6661696c656400000000000000000000600082015250565b6000612ca3601683612939565b9150612cae82612c6d565b602082019050919050565b60006020820190508181036000830152612cd281612c96565b9050919050565b6000612ce482612511565b9150612cef83612511565b9250828202612cfd81612511565b91508282048414831517612d1457612d1361288e565b5b5092915050565b7f70616972696e672d6f70636f64652d6661696c65640000000000000000000000600082015250565b6000612d51601583612939565b9150612d5c82612d1b565b602082019050919050565b60006020820190508181036000830152612d8081612d44565b905091905056fea264697066735822122043955055e040b479d39f937b29c562f93b22c1810861acfe9ce51f4936349e9364736f6c63430008130033",
  "immutableReferences": {},
  "source": "//\n// Copyright 2017 Christian Reitwiessner\n// Permission is hereby granted, free of charge, to any person obtaining a copy of this software and associated documentation files (the \"Software\"), to deal in the Software without restriction, including without limitation the rights to use, copy, modify, merge, publish, distribute, sublicense, and/or sell copies of the Software, and to permit persons to whom the Software is furnished to do so, subject to the following conditions:\n// The above copyright notice and this permission notice shall be included in all copies or substantial portions of the Software.\n// THE SOFTWARE IS PROVIDED \"AS IS\", WITHOUT WARRANTY OF ANY KIND, EXPRESS OR IMPLIED, INCLUDING BUT NOT LIMITED TO THE WARRANTIES OF MERCHANTABILITY, FITNESS FOR A PARTICULAR PURPOSE AND NONINFRINGEMENT. IN NO EVENT SHALL THE AUTHORS OR COPYRIGHT HOLDERS BE LIABLE FOR ANY CLAIM, DAMAGES OR OTHER LIABILITY, WHETHER IN AN ACTION OF CONTRACT, TORT OR OTHERWISE, ARISING FROM, OUT OF OR IN CONNECTION WITH THE SOFTWARE OR THE USE OR OTHER DEALINGS IN THE SOFTWARE.\n//\n// 2019 OKIMS\n//      ported to solidity 0.6\n//      fixed linter warnings\n//      added requiere error messages\n//\n//\n// SPDX-License-Identifier: GPL-3.0\npragma solidity ^0.8.17;\n\nimport \"./Pairing100.sol\";\nimport \"./Pairing200.sol\";\nimport \"./Pairing300.sol\";\nimport \"./Pairing400.sol\";\nimport \"./Pairing500.sol\";\nimport \"./Pairing600.sol\";\nimport \"./Pairing700.sol\";\nimport \"./Pairing800.sol\";\nimport \"./Pairing900.sol\";\nimport \"./Pairing1000.sol\";\n\nlibrary Pairing {\n    struct G1Point {\n        uint X;\n        uint Y;\n    }\n    // Encoding of field elements is: X[0] * z + X[1]\n    struct G2Point {\n        uint[2] X;\n        uint[2] Y;\n    }\n    /// @return the generator of G1\n    function P1() internal pure returns (G1Point memory) {\n        return G1Point(1, 2);\n    }\n    /// @return the generator of G2\n    function P2() internal pure returns (G2Point memory) {\n        // Original code point\n        return G2Point(\n            [11559732032986387107991004021392285783925812861821192530917403151452391805634,\n            10857046999023057135944570762232829481370756359578518086990519993285655852781],\n            [4082367875863433681332203403145435568316851327593401208105741076214120093531,\n            8495653923123431417604973247489272438418190587263600148770280649306958101930]\n        );\n    }\n    /// @return r the negation of p, i.e. p.addition(p.negate()) should be zero.\n    function negate(G1Point memory p) internal pure returns (G1Point memory r) {\n        // The prime q in the base field F_q for G1\n        uint q = 21888242871839275222246405745257275088696311157297823662689037894645226208583;\n        if (p.X == 0 && p.Y == 0)\n            return G1Point(0, 0);\n        return G1Point(p.X, q - (p.Y % q));\n    }\n    /// @return r the sum of two points of G1\n    function addition(G1Point memory p1, G1Point memory p2) internal view returns (G1Point memory r) {\n        uint[4] memory input;\n        input[0] = p1.X;\n        input[1] = p1.Y;\n        input[2] = p2.X;\n        input[3] = p2.Y;\n        bool success;\n        // solium-disable-next-line security/no-inline-assembly\n        assembly {\n            success := staticcall(sub(gas(), 2000), 6, input, 0xc0, r, 0x60)\n        // Use \"invalid\" to make gas estimation work\n            switch success case 0 {invalid()}\n        }\n        require(success, \"pairing-add-failed\");\n    }\n    /// @return r the product of a point on G1 and a scalar, i.e.\n    /// p == p.scalar_mul(1) and p.addition(p) == p.scalar_mul(2) for all points p.\n    function scalar_mul(G1Point memory p, uint s) internal view returns (G1Point memory r) {\n        uint[3] memory input;\n        input[0] = p.X;\n        input[1] = p.Y;\n        input[2] = s;\n        bool success;\n        // solium-disable-next-line security/no-inline-assembly\n        assembly {\n            success := staticcall(sub(gas(), 2000), 7, input, 0x80, r, 0x60)\n        // Use \"invalid\" to make gas estimation work\n            switch success case 0 {invalid()}\n        }\n        require(success, \"pairing-mul-failed\");\n    }\n    /// @return the result of computing the pairing check\n    /// e(p1[0], p2[0]) *  .... * e(p1[n], p2[n]) == 1\n    /// For example pairing([P1(), P1().negate()], [P2(), P2()]) should\n    /// return true.\n    function pairing(G1Point[] memory p1, G2Point[] memory p2) internal view returns (bool) {\n        require(p1.length == p2.length, \"pairing-lengths-failed\");\n        uint elements = p1.length;\n        uint inputSize = elements * 6;\n        uint[] memory input = new uint[](inputSize);\n        for (uint i = 0; i < elements; i++)\n        {\n            input[i * 6 + 0] = p1[i].X;\n            input[i * 6 + 1] = p1[i].Y;\n            input[i * 6 + 2] = p2[i].X[0];\n            input[i * 6 + 3] = p2[i].X[1];\n            input[i * 6 + 4] = p2[i].Y[0];\n            input[i * 6 + 5] = p2[i].Y[1];\n        }\n        uint[1] memory out;\n        bool success;\n        // solium-disable-next-line security/no-inline-assembly\n        assembly {\n            success := staticcall(sub(gas(), 2000), 8, add(input, 0x20), mul(inputSize, 0x20), out, 0x20)\n        // Use \"invalid\" to make gas estimation work\n            switch success case 0 {invalid()}\n        }\n        require(success, \"pairing-opcode-failed\");\n        return out[0] != 0;\n    }\n    /// Convenience method for a pairing check for two pairs.\n    function pairingProd2(G1Point memory a1, G2Point memory a2, G1Point memory b1, G2Point memory b2) internal view returns (bool) {\n        G1Point[] memory p1 = new G1Point[](2);\n        G2Point[] memory p2 = new G2Point[](2);\n        p1[0] = a1;\n        p1[1] = b1;\n        p2[0] = a2;\n        p2[1] = b2;\n        return pairing(p1, p2);\n    }\n    /// Convenience method for a pairing check for three pairs.\n    function pairingProd3(\n        G1Point memory a1, G2Point memory a2,\n        G1Point memory b1, G2Point memory b2,\n        G1Point memory c1, G2Point memory c2\n    ) internal view returns (bool) {\n        G1Point[] memory p1 = new G1Point[](3);\n        G2Point[] memory p2 = new G2Point[](3);\n        p1[0] = a1;\n        p1[1] = b1;\n        p1[2] = c1;\n        p2[0] = a2;\n        p2[1] = b2;\n        p2[2] = c2;\n        return pairing(p1, p2);\n    }\n    /// Convenience method for a pairing check for four pairs.\n    function pairingProd4(\n        G1Point memory a1, G2Point memory a2,\n        G1Point memory b1, G2Point memory b2,\n        G1Point memory c1, G2Point memory c2,\n        G1Point memory d1, G2Point memory d2\n    ) internal view returns (bool) {\n        G1Point[] memory p1 = new G1Point[](4);\n        G2Point[] memory p2 = new G2Point[](4);\n        p1[0] = a1;\n        p1[1] = b1;\n        p1[2] = c1;\n        p1[3] = d1;\n        p2[0] = a2;\n        p2[1] = b2;\n        p2[2] = c2;\n        p2[3] = d2;\n        return pairing(p1, p2);\n    }\n}\n\ncontract EncryptionVerifier {\n    using Pairing for *;\n\n    address private pairing100;\n    address private pairing200;\n    address private pairing300;\n    address private pairing400;\n    address private pairing500;\n    address private pairing600;\n    address private pairing700;\n    address private pairing800;\n    address private pairing900;\n    address private pairing1000;\n\n    struct VerifyingKey {\n        Pairing.G1Point alfa1;\n        Pairing.G2Point beta2;\n        Pairing.G2Point gamma2;\n        Pairing.G2Point delta2;\n    }\n\n    struct Proof {\n        Pairing.G1Point A;\n        Pairing.G2Point B;\n        Pairing.G1Point C;\n    }\n\n    function setPairingAdresses(address[10] calldata addresses) public {\n        pairing100 = addresses[0];\n        pairing200 = addresses[1];\n        pairing300 = addresses[2];\n        pairing400 = addresses[3];\n        pairing500 = addresses[4];\n        pairing600 = addresses[5];\n        pairing700 = addresses[6];\n        pairing800 = addresses[7];\n        pairing900 = addresses[8];\n        pairing1000 = addresses[9];\n    }\n\n    function verifyingKey() internal pure returns (VerifyingKey memory vk) {\n        vk.alfa1 = Pairing.G1Point(\n            20491192805390485299153009773594534940189261866228447918068658471970481763042,\n            9383485363053290200918347156157836566562967994039712273449902621266178545958\n        );\n\n        vk.beta2 = Pairing.G2Point(\n            [4252822878758300859123897981450591353533073413197771768651442665752259397132,\n            6375614351688725206403948262868962793625744043794305715222011528459656738731],\n            [21847035105528745403288232691147584728191162732299865338377159692350059136679,\n            10505242626370262277552901082094356697409835680220590971873171140371331206856]\n        );\n        vk.gamma2 = Pairing.G2Point(\n            [11559732032986387107991004021392285783925812861821192530917403151452391805634,\n            10857046999023057135944570762232829481370756359578518086990519993285655852781],\n            [4082367875863433681332203403145435568316851327593401208105741076214120093531,\n            8495653923123431417604973247489272438418190587263600148770280649306958101930]\n        );\n        vk.delta2 = Pairing.G2Point(\n            [6653259084928985759212025249045143654297075953578382745064964143441455343356,\n            8160999132074616195727858211272521546858233416802944087099739007663370791684],\n            [5005417252240310256132733574742221180631042236600616922722331817516271580377,\n            535375283190531279782443189967329266724259036468032022432462508232591886570]\n        );\n    }\n\n    function verify(uint[] memory input, Proof memory proof) internal view returns (uint) {\n        uint256 snark_scalar_field = 21888242871839275222246405745257275088548364400416034343698204186575808495617;\n        VerifyingKey memory vk = verifyingKey();\n        require(input.length + 1 == 1006, \"verifier-bad-input\");\n        // Compute the linear combination vk_x\n        Pairing.G1Point memory vk_x = Pairing.G1Point(0, 0);\n        for (uint i = 0; i < 100; i++) {\n            require(input[i] < snark_scalar_field, \"verifier-gte-snark-scalar-field\");\n            (uint x, uint y) = Pairing100(pairing100).vk(i + 1);\n            vk_x = Pairing.addition(vk_x, Pairing.scalar_mul(Pairing.G1Point(x, y), input[i]));\n        }\n        for (uint i = 0; i < 100; i++) {\n            require(input[i + 100] < snark_scalar_field, \"verifier-gte-snark-scalar-field\");\n            (uint x, uint y) = Pairing200(pairing200).vk(i + 1);\n            vk_x = Pairing.addition(vk_x, Pairing.scalar_mul(Pairing.G1Point(x, y), input[i + 100]));\n        }\n        for (uint i = 0; i < 100; i++) {\n            require(input[i + 200] < snark_scalar_field, \"verifier-gte-snark-scalar-field\");\n            (uint x, uint y) = Pairing300(pairing300).vk(i + 1);\n            vk_x = Pairing.addition(vk_x, Pairing.scalar_mul(Pairing.G1Point(x, y), input[i + 200]));\n        }\n        for (uint i = 0; i < 100; i++) {\n            require(input[i + 300] < snark_scalar_field, \"verifier-gte-snark-scalar-field\");\n            (uint x, uint y) = Pairing400(pairing400).vk(i + 1);\n            vk_x = Pairing.addition(vk_x, Pairing.scalar_mul(Pairing.G1Point(x, y), input[i + 300]));\n        }\n        for (uint i = 0; i < 100; i++) {\n            require(input[i + 400] < snark_scalar_field, \"verifier-gte-snark-scalar-field\");\n            (uint x, uint y) = Pairing500(pairing500).vk(i + 1);\n            vk_x = Pairing.addition(vk_x, Pairing.scalar_mul(Pairing.G1Point(x, y), input[i + 400]));\n        }\n        for (uint i = 0; i < 100; i++) {\n            require(input[i + 500] < snark_scalar_field, \"verifier-gte-snark-scalar-field\");\n            (uint x, uint y) = Pairing600(pairing600).vk(i + 1);\n            vk_x = Pairing.addition(vk_x, Pairing.scalar_mul(Pairing.G1Point(x, y), input[i + 500]));\n        }\n        for (uint i = 0; i < 100; i++) {\n            require(input[i + 600] < snark_scalar_field, \"verifier-gte-snark-scalar-field\");\n            (uint x, uint y) = Pairing700(pairing700).vk(i + 1);\n            vk_x = Pairing.addition(vk_x, Pairing.scalar_mul(Pairing.G1Point(x, y), input[i + 600]));\n        }\n        for (uint i = 0; i < 100; i++) {\n            require(input[i + 700] < snark_scalar_field, \"verifier-gte-snark-scalar-field\");\n            (uint x, uint y) = Pairing800(pairing800).vk(i + 1);\n            vk_x = Pairing.addition(vk_x, Pairing.scalar_mul(Pairing.G1Point(x, y), input[i + 700]));\n        }\n        for (uint i = 0; i < 100; i++) {\n            require(input[i + 800] < snark_scalar_field, \"verifier-gte-snark-scalar-field\");\n            (uint x, uint y) = Pairing900(pairing900).vk(i + 1);\n            vk_x = Pairing.addition(vk_x, Pairing.scalar_mul(Pairing.G1Point(x, y), input[i + 800]));\n        }\n        for (uint i = 0; i < 106; i++) {\n            require(input[i + 900] < snark_scalar_field, \"verifier-gte-snark-scalar-field\");\n            (uint x, uint y) = Pairing1000(pairing1000).vk(i + 1);\n            vk_x = Pairing.addition(vk_x, Pairing.scalar_mul(Pairing.G1Point(x, y), input[i + 900]));\n        }\n        (uint x0, uint y0) = Pairing100(pairing100).vk(0);\n        vk_x = Pairing.addition(vk_x, Pairing.G1Point(x0, y0));\n        if (!Pairing.pairingProd4(\n            Pairing.negate(proof.A), proof.B,\n            vk.alfa1, vk.beta2,\n            vk_x, vk.gamma2,\n            proof.C, vk.delta2\n        )) return 1;\n        return 0;\n    }\n    /// @return r  bool true if proof is valid\n    function verifyProof(\n        uint[2] memory a,\n        uint[2][2] memory b,\n        uint[2] memory c,\n        uint[1005] memory input\n    ) public view returns (bool r) {\n        Proof memory proof;\n        proof.A = Pairing.G1Point(a[0], a[1]);\n        proof.B = Pairing.G2Point([b[0][0], b[0][1]], [b[1][0], b[1][1]]);\n        proof.C = Pairing.G1Point(c[0], c[1]);\n        uint[] memory inputValues = new uint[](input.length);\n        for (uint i = 0; i < input.length; i++) {\n            inputValues[i] = input[i];\n        }\n        if (verify(inputValues, proof) == 0) {\n            return true;\n        } else {\n            return false;\n        }\n    }\n}\n",
  "sourcePath": "/Users/alain/Documents/hackathon/very-smart-contract/smart-contracts/contracts/encryptionVerifier.sol",
  "compiler": {
    "name": "solc",
    "version": "0.8.19+commit.7dd6d404.Emscripten.clang"
  },
  "schemaVersion": "3.4.13",
  "updatedAt": "2023-05-13T08:12:20.477Z",
  "networkType": "ethereum",
  "devdoc": {
    "kind": "dev",
    "methods": {
      "verifyProof(uint256[2],uint256[2][2],uint256[2],uint256[1005])": {
        "returns": {
          "r": " bool true if proof is valid"
        }
      }
    },
    "version": 1
  },
  "userdoc": {
    "kind": "user",
    "methods": {},
    "version": 1
  }
}