{
  "contractName": "VSC",
  "abi": [
    {
      "inputs": [
        {
          "internalType": "uint256",
          "name": "",
          "type": "uint256"
        }
      ],
      "name": "NFTCreators",
      "outputs": [
        {
          "internalType": "address",
          "name": "",
          "type": "address"
        }
      ],
      "stateMutability": "view",
      "type": "function",
      "constant": true
    },
    {
      "inputs": [
        {
          "internalType": "address",
          "name": "",
          "type": "address"
        },
        {
          "internalType": "uint256",
          "name": "",
          "type": "uint256"
        }
      ],
      "name": "NFTcreatorToCollections",
      "outputs": [
        {
          "internalType": "address",
          "name": "",
          "type": "address"
        }
      ],
      "stateMutability": "view",
      "type": "function",
      "constant": true
    },
    {
      "inputs": [
        {
          "internalType": "address",
          "name": "collectionAddress",
          "type": "address"
        }
      ],
      "name": "approveCollection",
      "outputs": [],
      "stateMutability": "nonpayable",
      "type": "function"
    },
    {
      "inputs": [],
      "name": "nbNFTCreators",
      "outputs": [
        {
          "internalType": "uint256",
          "name": "",
          "type": "uint256"
        }
      ],
      "stateMutability": "view",
      "type": "function",
      "constant": true
    }
  ],
  "bytecode": "0x608060405234801561001057600080fd5b50610447806100206000396000f3fe608060405234801561001057600080fd5b506004361061004c5760003560e01c80632be2a6ef146100515780632d75b77a1461006f5780636aae5cda1461009f578063a9a01063146100bb575b600080fd5b6100596100eb565b60405161006691906102a3565b60405180910390f35b6100896004803603810190610084919061034d565b6100f7565b604051610096919061039c565b60405180910390f35b6100b960048036038101906100b491906103b7565b610145565b005b6100d560048036038101906100d091906103e4565b61024b565b6040516100e2919061039c565b60405180910390f35b60008080549050905090565b6001602052816000526040600020818154811061011357600080fd5b906000526020600020016000915091509054906101000a900473ffffffffffffffffffffffffffffffffffffffff1681565b600160003373ffffffffffffffffffffffffffffffffffffffff1673ffffffffffffffffffffffffffffffffffffffff168152602001908152602001600020819080600181540180825580915050600190039060005260206000200160009091909190916101000a81548173ffffffffffffffffffffffffffffffffffffffff021916908373ffffffffffffffffffffffffffffffffffffffff1602179055506000339080600181540180825580915050600190039060005260206000200160009091909190916101000a81548173ffffffffffffffffffffffffffffffffffffffff021916908373ffffffffffffffffffffffffffffffffffffffff16021790555050565b6000818154811061025b57600080fd5b906000526020600020016000915054906101000a900473ffffffffffffffffffffffffffffffffffffffff1681565b6000819050919050565b61029d8161028a565b82525050565b60006020820190506102b86000830184610294565b92915050565b600080fd5b600073ffffffffffffffffffffffffffffffffffffffff82169050919050565b60006102ee826102c3565b9050919050565b6102fe816102e3565b811461030957600080fd5b50565b60008135905061031b816102f5565b92915050565b61032a8161028a565b811461033557600080fd5b50565b60008135905061034781610321565b92915050565b60008060408385031215610364576103636102be565b5b60006103728582860161030c565b925050602061038385828601610338565b9150509250929050565b610396816102e3565b82525050565b60006020820190506103b1600083018461038d565b92915050565b6000602082840312156103cd576103cc6102be565b5b60006103db8482850161030c565b91505092915050565b6000602082840312156103fa576103f96102be565b5b600061040884828501610338565b9150509291505056fea264697066735822122060dd541400ef9cde66d9314b41663899002d38aeabc91a901907548eb04ee46d64736f6c63430008130033",
  "immutableReferences": {},
  "source": "// SPDX-License-Identifier: GPL-3.0\n\npragma solidity ^0.8.17;\n\ncontract VSC {\n\n    address[] public NFTCreators;\n    mapping(address => address[]) public NFTcreatorToCollections;\n\n    function approveCollection(\n        address collectionAddress\n    ) public  {\n        NFTcreatorToCollections[msg.sender].push(collectionAddress);\n        NFTCreators.push(msg.sender);\n    }\n    \n    function nbNFTCreators() public view returns(uint)  {\n        return NFTCreators.length;\n    }\n\n}\n",
  "sourcePath": "/Users/alain/Documents/hackathon/very-smart-contract/smart-contracts/contracts/VSC.sol",
  "compiler": {
    "name": "solc",
    "version": "0.8.19+commit.7dd6d404.Emscripten.clang"
  },
  "schemaVersion": "3.4.13",
  "updatedAt": "2023-05-15T20:54:28.853Z",
  "networkType": "ethereum",
  "devdoc": {
    "kind": "dev",
    "methods": {},
    "version": 1
  },
  "userdoc": {
    "kind": "user",
    "methods": {},
    "version": 1
  }
}